:020000040800F2
:1000000000390120E5210008490400084B040008DC
:100010004F040008530400085704000800000000C3
:100020000000000000000000000000008502000841
:100030005B04000800000000E1020008431700080C
:10004000FF210008FF210008FF210008FF21000810
:10005000FF210008FF210008FF210008FF21000800
:10006000FF210008FF210008FF210008FF210008F0
:10007000FF210008FF210008FF210008FF210008E0
:10008000FF210008FF210008FF210008FF210008D0
:10009000FF210008FF210008FF210008FF210008C0
:1000A0000F110008FF210008FF210008FF210008B0
:1000B000FF210008DF070008FF210008FF210008DA
:1000C000FF210008FF210008FF210008FF21000890
:1000D000FF210008EF180008BD1900087B21000867
:1000E000FF210008FF210008FF210008FF21000870
:1000F000FF210008FF210008FF210008FF21000860
:10010000FF210008FF210008FF210008FF2100084F
:1001100003130008FF210008FF210008FF21000849
:10012000FF210008FF210008FF210008FF2100082F
:10013000FF210008FF210008FF210008FF2100081F
:10014000FF210008FF210008FF210008FF2100080F
:10015000FF210008FF21000813100008FF210008FC
:10016000FF210008FF210008FF210008FF210008EF
:10017000FF210008FF210008FF210008FF210008DF
:10018000FF210008FF21000800F002F800F06AF8E3
:100190000AA090E8000C82448344AAF10107DA45E2
:1001A00001D100F05FF8AFF2090EBAE80F0013F0CA
:1001B000010F18BFFB1A43F00103184730B00000CD
:1001C00050B000000A444FF0000C10F8013B13F04F
:1001D000070408BF10F8014B1D1108BF10F8015BA0
:1001E000641E05D010F8016B641E01F8016BF9D193
:1001F00013F0080F1EBF10F8014BAD1C0C1B09D1EA
:100200006D1E58BF01F801CBFAD505E014F8016B5B
:1002100001F8016B6D1EF9D59142D6D370470000ED
:100220000023002400250026103A28BF78C1FBD8FF
:10023000520728BF30C148BF0B6070471FB50AF096
:10024000F6FA08F0A5FD04000020002109F074FD75
:10025000401C60600020002109F058FDE0601FBDD7
:1002600010B510BD08F0CEFA1146FFF7E7FF00F019
:1002700069F808F047FD03B4FFF7F2FF03BC01F093
:10028000CBFA00002C4B19680868B0E8F04F80F3F7
:100290000988BFF36F8F4FF0000080F3118870471B
:1002A0000000000008480068006880F308884FF0EC
:1002B000000080F3148862B661B6BFF34F8FBFF3BE
:1002C0006F8F00DF00BF00BF08ED00E0DFF80C001B
:1002D000016841F470010160704700BF88ED00E0E3
:1002E000EFF30980BFF36F8F134B1A681EF0100FE6
:1002F00008BF20ED108A20E9F04F106009B44FF0DC
:10030000500080F31188BFF34F8FBFF36F8F05F05C
:1003100057FD4FF0000080F3118809BC1968086888
:10032000B0E8F04F1EF0100F08BFB0EC108A80F359
:100330000988BFF36F8F704764020020EFF30580D8
:10034000704700001CB54FF4A06001F06BFFA820BF
:1003500001F0FFF94FF4E13001F06CFA4FF4E130B5
:1003600001F0D7FA4FF4E13000F076FF1D20234B67
:10037000234A51060090234800F0E2FD00F076F990
:1003800040F2473140F2CF7000F096F901F022F9C7
:10039000A8214FF6FF7000F04FFE41F61F4142F2D8
:1003A0000F7000F0F4F900F055FA00F019FD00F0BC
:1003B000EEFB00F07AFA1448022100233222CDE944
:1003C000001012A1144805F044F914480421002338
:1003D0004FF4FA72CDE9001011A1154805F039F972
:1003E000144801210023C822CDE9001012A11548AC
:1003F00005F02FF905F06DFE00201CBD70320120C4
:1004000004100140B8640240D80200206C656430DA
:100410005F7461736B000000B17900088C030020E9
:100420006D616368696E655F7461736B00000000E5
:100430005F7B0008F403002064656275675F746188
:10044000736B0000F9810008704700BFFEE700BF32
:10045000FEE700BFFEE700BFFEE770470CB50020D7
:10046000019000907648006840F48030744908603C
:1004700000BF7348006800F4003000900198401CF1
:100480000190009818B90198B0F5A04FF1D16C48CF
:10049000006800F4003010B10120009001E000205D
:1004A00000900098012846D165484030006840F02F
:1004B00080506349403108606248006840F4404021
:1004C000604908605E48083000685D49083108608E
:1004D0000846006840F4004008600846006840F4A0
:1004E000A05008605848091F0860081F006840F0C5
:1004F0008070091F086000BF5148006800F000705C
:100500000028F9D040F20570504908604C48083086
:10051000006820F003004A49083108600846006876
:1005200040F00200086000BF45480830006800F055
:100530000C000828F8D10CBD10B54548006840F4FF
:100540007000434908603E48006840F001003C49A3
:10055000086000203A4908310860394800683D4980
:100560000840374908603C48091D0860081F0068BA
:1005700020F48020091F0860002031490C310860F8
:10058000FFF76CFF4FF0006031498039086010BD03
:1005900070B500200022022300240221284D0835D6
:1005A0002D6805F00C0020B1042806D0082834D1AD
:1005B00007E02A4D2A4E356033E02A4D284E35603B
:1005C0002FE01F4D2D1D2D68C5F380541C4D2D1D92
:1005D0002D6805F03F0154B1224DB5FBF1F5184EE1
:1005E000361D3668C6F3881605FB06F209E01B4D7A
:1005F000B5FBF1F5124E361D3668C6F3881605FBBD
:1006000006F20F4D2D1D2D68C5F301456D1C6B00C5
:10061000B2FBF3F5124E356003E0104D104E35601D
:1006200000BF00BF064D08352D68C5F303150E4EFB
:10063000705D0B4D2D68C540094E356070BD0000E2
:10064000003802400070004008544007003C02405F
:1006500088ED00E0FFFFF6FE103000240024F400D7
:100660000000002000127A00040000201CB50121C7
:10067000202003F0E7F94FF4C060009001208DF8CE
:10068000040000208DF8060003208DF805000120ED
:100690008DF807006946074801F0BAFE4FF4007173
:1006A000044801F031FF4FF48061024801F02EFF51
:1006B0001CBD00000014024030B58BB004460D464E
:1006C0000121042003F007FA0121022003F0BAF906
:1006D00002220621564801F026FF02220721544833
:1006E00001F021FF02220821514801F01CFF0222E3
:1006F00009214F4801F017FF4FF470700990022054
:100700008DF8280003208DF8290000208DF82A009C
:1007100001208DF82B0009A9454801F079FEA8B207
:10072000ADF818000020ADF81A000794ADF82000CD
:1007300006A9404802F007FA6020ADF80400012045
:10074000ADF806000020ADF8100001A9394802F00C
:100750008FFA01A9374802F0C4FA01A9354802F01E
:100760000DFB01A9334802F06FFB0821314802F06C
:100770000CFC08212F4802F011FC01212D4802F049
:100780004DFA01212B4802F067FA0BB030BD7FB55E
:1007900005460C460121022003F09DF90295ADF8B3
:1007A00004400020ADF80C00ADF8060001A9224875
:1007B00002F0C9F9012211461F4802F065FE1D2012
:1007C0008DF8000000208DF8010003208DF8020054
:1007D00001208DF80300684601F029FD7FBD10B5AA
:1007E0000121154802F067FE08B30121124802F00A
:1007F00073FE1248007806280EDB012010490870AD
:100800000020104908601049C1F88C020B4908709B
:100810000021094802F020FA08480078401C0749E6
:1008200008700A480068C0430949C1F8A40210BD15
:1008300000040240000800400004004014000020B2
:10084000200200208882414200804142A48242422C
:10085000008042421CB50121082003F0F3F801207A
:100860008DF804000C20009002208DF80700002075
:100870008DF806006946054801F0CAFD00200449CC
:1008800008600449C1F88C021CBD0000000C024045
:1008900088824142008041420165426580ED000A44
:1008A000C0ED010A80ED021A704700B59FED7D1A78
:1008B000DFED7D0A9FED7D0A42F2107211467C4801
:1008C000FFF7EAFF9FED771ADFED760AB7EE000A31
:1008D00042F21072114676486030FFF7DDFF00BD2E
:1008E00000B970479FED6F0A80ED050A80ED040A9C
:1008F00080ED030A9FED6B0A80ED110A80ED0F0A6F
:1009000080ED100A9FED670A80ED0E0A80ED0D0A5A
:1009100080ED0C0A9FED630A80ED080A9FED610AE5
:1009200080ED0B0A00BFDCE710B52DED088B044607
:10093000B0EE408A94ED000AB4EEC80AF1EE10FA67
:1009400001DD84ED008A18EE100A09F0FFFE41EC8B
:100950001B0B9FED580B53EC102B09F0D9FC41EC0D
:10096000190B94ED000A10EE101A084609F0EEFE7D
:1009700041EC1A0B53EC192B09F08EFC10D218EE37
:10098000100A09F0E3FE41EC1A0B9FED4A0B53EC01
:10099000102B09F0BDFC41EC190B09F0E3F92060C4
:1009A000BDEC088B10BD10B52DED028B0446B0EEEA
:1009B000408AF0EE608A84ED088AC4ED0B8A38EE36
:1009C000680A84ED0E0A94ED0E0AD4ED0D0A30EE9D
:1009D000600AD4ED000A20EE200A84ED030A94EDAB
:1009E000010AD4ED0E0A20EE200A84ED040A94EDEB
:1009F0000E0AD4ED0D0AB0EE001A01EE600AD4ED35
:100A00000C0A30EE200AD4ED020A20EE200A84ED12
:100A1000050AD4ED140AF8EE600AB0EE600A04F19B
:100A20001000FFF781FF94ED030AD4ED040A30EEC5
:100A3000200AD4ED050A30EE200A84ED0F0A94ED69
:100A4000110AD4ED0F0A30EE200A84ED100AD4ED1D
:100A5000150AF8EE600AB0EE600A04F14000FFF7F4
:100A600063FF94ED100A84ED110A94ED0D0A84EDF4
:100A70000C0A94ED0E0A84ED0D0A94ED0A0A84ED39
:100A8000090A94ED0B0A84ED0A0A94ED070A84ED35
:100A9000060A94ED080A84ED070A94ED100ABDECED
:100AA000028B10BD000000000AD7233D6666663F3A
:100AB00008040020000000000000F0BF70B50446EC
:100AC0000E4626B12021FE4801F01EFD03E0202144
:100AD000FB4801F01BFD0221F94801F017FD00253C
:100AE00017E04021F64801F011FD04F0800020B12C
:100AF0008021F34801F008FD03E08021F04801F077
:100B000005FD4021EE4801F0FFFC6006040E681C64
:100B1000C5B2082DE5DB0221E94801F0F5FC2021F2
:100B2000E74801F0F1FC70BD70B504460D4605F1D3
:100B3000B001C8B20021FFF7C1FF102141EA141033
:100B40000021FFF7BBFF04F00F0141F0010000217D
:100B5000FFF7B4FF70BD10B500218D20FFF7AEFF89
:100B600000211420FFF7AAFF0021AF20FFF7A6FF06
:100B700010BD10B500218D20FFF7A0FF002110202F
:100B8000FFF79CFF0021AE20FFF798FF10BD70B566
:100B9000002419E004F1B001C8B20021FFF78EFF74
:100BA00000210846FFF78AFF00211020FFF786FF8B
:100BB000002505E001210020FFF780FF681CC5B279
:100BC000802DF7DB601CC4B2082CE3DB70BD2DE97F
:100BD000F04107460E46904600250024A8F120006B
:100BE000C5B27F2F02DD0027B01CC6B231463846A1
:100BF000FFF79AFF002408E004EB0511B14A505CAE
:100C00000121FFF75BFF601CC4B2082CF4DB701CF1
:100C1000C1B23846FFF788FF002409E004EB051154
:100C20000831A84A505C0121FFF748FF601CC4B29C
:100C3000082CF3DBBDE8F08110B50246012000E08E
:100C400050430B00A1F10104E1B2F9D110BD2DE92F
:100C5000FF5F074691461D460E9E4FF0000A002496
:100C600033E0281B401EC1B20A20FFF7E5FFB9FBA5
:100C7000F0F00A21B0FBF1F201FB1208BAF1000F0B
:100C800013D1681EA04210DDB8F1000F0BD1B3469E
:100C900006EBDB71491001FB0471C8B220220199F7
:100CA000FFF795FF0FE04FF0010AB34606EBDB714B
:100CB000491001FB0471C8B208F13001CAB20199B0
:100CC000FFF785FF00BF601CC4B2AC42C9DBBDE8C2
:100CD000FF9F2DE9F04104460F46154600260EE021
:100CE000AA5D39462046FFF772FF04F10800C4B23E
:100CF000782C02DD0024B81CC7B2701CC6B2A85DF7
:100D00000028EDD1BDE8F0812DE9F04180460E4686
:100D10001546002731464046FFF706FF00240AE04B
:100D2000694A02EB8511085D0121FFF7C7FE781CB7
:100D3000C7B2601CC4B2102CF2DB701CC1B24046BA
:100D4000FFF7F2FE00240CE06900491C5E4A02EB4A
:100D50004111085D0121FFF7B1FE781CC7B2601C8C
:100D6000C4B2102CF0DBBDE8F0812DE9F05F06463F
:100D70000F4690461C46DDF828A04FF0000BE11707
:100D800004EB5171C910A4EBC10131B92046E11740
:100D900004EB5171C1F3C70506E02046E11704EBEF
:100DA0005171C910491CCDB23D4615E02946304667
:100DB000FFF7BAFEB1460BE059460BF1010B1AF8EA
:100DC00001000121FFF77AFE09F1010000F0FF099F
:100DD000C145F1DB681CC5B2A542E7DBBDE8F09F69
:100DE0001CB50121082002F02DFE4FF4F97000908F
:100DF00001208DF8040003208DF8050000208DF8F7
:100E0000060069462E4801F003FB4FF4F9712C48A7
:100E100001F07AFB10212A4801F076FB642000F0F3
:100E2000D7FC1021264801F071FB642000F0D0FCB3
:100E30001021234801F068FB0021AE20FFF73EFEA1
:100E400000210846FFF73AFE00211020FFF736FE8A
:100E500000214020FFF732FE00218120FFF72EFE07
:100E60000021CF20FFF72AFE0021A120FFF726FE58
:100E70000021C820FFF722FE0021A620FFF71EFE5A
:100E80000021A820FFF71AFE00213F20FFF716FEE1
:100E90000021D320FFF712FE00210846FFF70EFEC7
:100EA0000021D520FFF70AFE00218020FFF706FE73
:100EB0000021D920FFF702FE0021F12006E000000A
:100EC000000C024066AB000815000020FFF7F6FD9D
:100ED0000021DA20FFF7F2FD00211220FFF7EEFDDE
:100EE0000021DB20FFF7EAFD00214020FFF7E6FDAF
:100EF00000212020FFF7E2FD00210220FFF7DEFDA8
:100F000000218D20FFF7DAFD00211420FFF7D6FD28
:100F10000021A420FFF7D2FD0021A620FFF7CEFD7F
:100F20000021AF20FFF7CAFD0021AF20FFF7C6FD6B
:100F3000FFF72DFE00210846FFF7F6FD1CBD00005F
:100F40002DE9F04190B004460D4617461E46DDF8E7
:100F500058803748844204D90121880502F072FD87
:100F600003E00121480502F06DFD204602F0BEFEBF
:100F700000BF204602F0E3FF0028FAD10195029756
:100F8000039640200490CDF81480002006904FF482
:100F9000806007900020089009900A904FF48030FC
:100FA0000B9000200C9003200D9000200E900F90CD
:100FB00001A9204602F03CFF46208DF800000220E7
:100FC0008DF801008DF8020001208DF803006846BD
:100FD00001F02DF9012210211548B83002F0EFFF81
:100FE00010B0BDE8F08170B504460D4600212046E2
:100FF00002F058FF00BF204602F0A1FF0028FAD1FE
:101000002946204602F06FFF0121204602F04AFFE8
:1010100070BD10B507490648B83002F0EDFF012851
:1010200004D104490248B83003F010F810BD0000A4
:10103000006402400080002830B589B005460C46A7
:101040000121102002F0FEFC0121080402F054FDF1
:1010500003220521784801F066FA20200090022042
:101060008DF8040003208DF8050000208DF806009F
:1010700002208DF8070069466F4801F0C9F9402049
:10108000009001208DF8040003208DF80500002059
:101090008DF8060002208DF807006946664801F0C9
:1010A000B7F90795ADF818400020ADF82000ADF86D
:1010B0001A0006A9614801F046FD0020ADF80C00B9
:1010C000ADF81400ADF80E00ADF812000120ADF837
:1010D000100003A9594802F00DF9012203215748D5
:1010E00002F0D2F918208DF8080002208DF80900CE
:1010F00000208DF80A0001208DF80B0002A801F0F5
:1011000096F801214D4801F0A7FD09B030BD10B59A
:101110004B48007800F08000002854D10121474856
:1011200002F0C9F9D0B14648007800F04000A8B1FB
:101130004348007800F03F003F280AD1404800783B
:1011400040F080003E4908704FF6FF703D4908802E
:1011500004E03B480078401C3949087002213748B8
:1011600002F0A9F978B33648007800F0400078B171
:101170003348007840F08000314908702F4802F071
:1011800037F93049088000212C4801F080FF1AE02F
:1011900000202B4908702B4908802948007840F02E
:1011A0004000274908700021244801F055FD002126
:1011B000224801F011FD0221204801F068FF0121C1
:1011C0001E4801F049FD03211C4802F085F910BDBD
:1011D00010B52DED028B002008EE100A184800789B
:1011E00000F08000C0B11648007800F03F001549BB
:1011F00009884FF6FF7202FB001008EE100AB8EEE5
:10120000C80ADFED110A20EE200A104880ED000A1E
:1012100000200B49087009E001200D4908602D20CD
:1012200000F0B4FA00200B49C1F89802074890ED8D
:10123000000ABDEC028B10BD0010024000400140CE
:10124000D8010020DA01002096438B3CDC0100200D
:10125000980242420000424210B588B00446012183
:10126000084602F0EFFB0121C80402F034FC08221A
:101270000021C74801F057F908220121C44801F0B4
:1012800052F90320069002208DF81C008DF81D00F5
:1012900000208DF81E0001208DF81F0006A9BC4813
:1012A00001F0B6F802940020ADF80C00ADF80E0085
:1012B000ADF81000ADF814000C20ADF8120002A932
:1012C000B44801F0D0F90121B24801F054FA4021AC
:1012D000B04801F038FB012240F22551AD4801F041
:1012E00000FB34208DF8040002208DF805008DF8F5
:1012F000060001208DF8070001A800F098FF08B053
:1013000010BD10B50020A449C870A449C870A449F4
:101310000870A449087040F225519E4801F01CFB5A
:1013200000287DD09B4801F055FA9F499F4A1268DA
:1013300088549E480068401C9C4908600846006824
:10134000401E9949085C7D286BD1084600787B28AF
:101350005AD101209649087021E0934894490978B0
:10136000405C94490880904891490978405C303845
:10137000C1B28F480078401E874A11548C480078CB
:10138000401E1146085C8C49088085480078401C46
:101390008349087086480078401C85490870804859
:1013A0000078042805DC804881490978405C2C28B5
:1013B000D3D17F480078401C7D49087000207F49C8
:1013C000087017E078487A490978405C30387349EA
:1013D0007A4A1278885479480078401C7749087016
:1013E00070480078401C6F49087071480078401CB4
:1013F0006F4908706B480078042805DC6A486C491E
:101400000978405C7D28DDD16D4800886D490880F1
:10141000684800886C49088061480078012801E02C
:1014200095E07BE01FD0022812D0032820D15A4833
:101430000078642110FB01F05749497801EB8101E4
:1014400000EB41005449897808445A49088013E068
:10145000514840785049097801EB810100EB410087
:101460005449088008E04C4800785249088003E05D
:1014700000205049088000BF00BF4A48007801287A
:101480001FD0022812D0032820D1444800786421BC
:1014900010FB01F04149497801EB810100EB41006B
:1014A0003E49897808444649088013E03B48407823
:1014B0003A49097801EB810100EB4100404908807D
:1014C00008E0364800783E49088003E000203C49A7
:1014D000088000BF00BF3748008810B13848008836
:1014E00038B939480088334908803648008834497B
:1014F000088000203149087009E000202A492F4A5D
:10150000127888542D480078401C2C4908702B48CC
:1015100000781D28F1DB0020244908602548008858
:101520004E3800EE100AB8EEC00A284880ED000AD6
:1015300090ED000AB1EE400AF6EE000A20EE200A15
:1015400080ED000A40F22551124801F040FA10BD2A
:1015500070B52DED028B05469FED1D0AB0EE408A59
:10156000002400BF0BE0194890ED000A38EE000A95
:10157000B0EE408A284604F0EAFA601C84B2052CDA
:10158000F1DBF1EE040A88EE200ABDEC028B70BD9F
:1015900000000240004C004015020020190200200B
:1015A0001E0200201F020020C804002004020020A8
:1015B000140200200E02002012020020000200206F
:1015C000080200200A02002010020020E001002092
:1015D0000000000000B58DB00121084602F032FA8B
:1015E0000121080202F088FA03208DF83000202043
:1015F0000B9000208DF833000BA9324800F008FF53
:10160000002007900A9009904FF48030089007A8B6
:1016100002F07AFD002001908DF808008DF8090095
:101620000390059001208DF8180001A9264802F0CA
:101630003CFD0121244802F07EFD0DB000BD2DE9E6
:10164000F04105460C4600260723012229461E4884
:1016500002F0B1FD00270FE01B4802F008FE00BFBA
:101660000221194802F024FF0028F9D0164802F0A0
:101670003AFE0644781CC7B2A742EDDBB6FBF4F095
:1016800080B2BDE8F08110B52DED028B0A21052056
:10169000FFF7D5FF08EE900AB8EEE80AB0EE408AF0
:1016A0009FED0A0A38EE400AB0EE408A9FED080A24
:1016B000C8EE000AB0EE608AB0EE480ABDEC028BBC
:1016C00010BD0000000002400020014000C0F844AE
:1016D00033336B4110B500201449087001201449C0
:1016E00008600020134908604FF4FA7000F04EF8CB
:1016F00001201149C1F8880201210D48243801F068
:10170000ABFA10BD10B50948007801280DD10020B2
:101710000849091F08601E2004F019FA0120064933
:10172000C1F88C0200200149087010BD2002002081
:10173000240400408C82414200804142704770473F
:10174000704710B504F0A4FF012801D006F0D0F8CE
:1017500010BD70B50446042000F0B6FD2C480460AE
:1017600025464FF47A70454301202A4908804FF0FE
:10177000E020006940F002004FF0E02108610846D7
:101780004561006940F00100086170BD70B5034615
:1017900000224FF0E02675691D4E366803FB06F403
:1017A0004FF0E026B16910E04FF0E026B0698842C2
:1017B0000BD0884202D20E1A324402E02E1A0E4496
:1017C00032440146A24200D300E0EDE700BF70BD05
:1017D00070B5044604F05CFF012811D00D48008864
:1017E000844206DB0B48008894FBF0F5284604F0A1
:1017F000AEF90848008894FBF0F100FB114084B278
:101800004FF47A7104FB01F0FFF7C0FF70BD0000D8
:101810002402002028020020014600BF704700BFBC
:10182000F84A128802F04002002AF9D0C2B2F54B01
:101830009A80704710B588B004460121084602F02E
:1018400001F90121102002F057F907220921EE4881
:1018500000F069FE07220A21EB4800F064FE4FF415
:10186000C060069002208DF81C008DF81D0000203D
:101870008DF81E0001208DF81F0006A9E24800F037
:10188000C7FD02940020ADF80C00ADF80E00ADF8D5
:101890001000ADF814000C20ADF8120002A9D948D0
:1018A00000F0E1FE01228021D64801F011F801216B
:1018B000D44800F060FF012240F22551D14801F0E8
:1018C00010F8012240F22441CE4801F00AF8252008
:1018D0008DF8040003208DF805008DF80600012026
:1018E0008DF8070001A800F0A2FC08B010BD10B5EB
:1018F00040F22551C34801F02FF808B106F016FE5A
:1019000040F22441BF4801F027F808B106F0F6FC88
:1019100010BD10B588B004460121084602F092F8C7
:101920000121480402F0D7F807220221B64800F04E
:10193000FAFD07220321B44800F0F5FD0C200690C3
:1019400002208DF81C008DF81D0000208DF81E006F
:1019500001208DF81F0006A9AB4800F059FD029444
:101960000020ADF80C00ADF80E00ADF81000ADF899
:1019700014000C20ADF8120002A9A44800F073FE78
:101980000121A24800F0F7FE4021A04800F0DBFF53
:10199000012240F225519D4800F0A3FF26208DF83A
:1019A000040003208DF805008DF8060001208DF855
:1019B000070001A800F03BFC08B010BD2DE9F04184
:1019C0002DED068B82B00024002500260027A046BE
:1019D00000BF04E000200DF80500681CC5B2062D0C
:1019E000F8DB40F22551894800F0B6FF002873D09B
:1019F00000208DF80500854800F0ECFE8449854AFA
:101A00001278885483480078401C82490870084640
:101A10000078401E7E49085C7D285DD1084600782C
:101A20007B2877D10846407840282CD1084680781A
:101A30003038092826D2DFE800F02505090D1115F8
:101A4000191D21000120744908601BE00220724921
:101A5000086017E003207049086013E004206E4915
:101A600008600FE005206C4908600BE006206A4919
:101A7000086007E007206849086000BF0820664941
:101A8000086000BF00BF6248C0784028C9D16048E4
:101A900000793038012806D002281ED0032842D011
:101AA000042818D137E001265B480068042803D1D8
:101AB00001205A4908700EE057480068052803D1F4
:101AC00001205749087006E053480068062802D1F3
:101AD00001205449087095E198E102264E480068BB
:101AE000042805D100204D4908704F4908700EE0C8
:101AF00049480068052803D100204949087006E0DC
:101B000045480068062802D100204649087006F0C2
:101B10008CFA77E177E104263F480068032801DC6E
:101B2000FFF7D8FD6EE1032639484079402868D197
:101B3000002437488079303807282ED2DFE800F0BB
:101B40002D042E96FEFDFC003148C079232824D1B7
:101B500007E004F108002E49085C0DF80400601C41
:101B6000C4B204F108002A49085C7D28F1D12A4852
:101B70000068022811D1684607F062FFB0EE408A83
:101B8000F0EE608A51EC180B08F0ECF82749086079
:101B9000084690ED000A05F092FF31E11C48C0793B
:101BA000232862D107E004F108001949085C0DF808
:101BB0000400601CC4B204F108001549085C7D28CB
:101BC000F1D115480068012803D0134800680228A5
:101BD00030D1684607F034FFB0EE409AF0EE609ADC
:101BE0001348006808F0B2FD41EC1A0B53EC192BB6
:101BF00008F0EAF841EC180B08F0B4F80C4908605A
:101C000033E0FEE0001001400000024000440040CC
:101C1000180500202C0200203C0200204002002079
:101C200038020020CC030020AC030020300200204A
:101C300090030020FE480068052816D1684607F08A
:101C4000FFFEB0EE409AF0EE609AFA48006808F0A5
:101C50007DFD41EC1A0B53EC192B08F0B5F841EC63
:101C6000180B08F07FF8F3490860C9E0F248C07922
:101C700023282DD107E004F10800EF49085C0DF896
:101C80000400601CC4B204F10800EB49085C7D2824
:101C9000F1D1E7480068012803D0E5480068022830
:101CA00017D1684607F0CCFEB0EE409AF0EE609A8D
:101CB000E248006808F04AFD41EC1A0B53EC192B7E
:101CC00008F082F841EC180B08F04CF8DB4908608A
:101CD00059E0D748006804281AD10120D849087073
:101CE000684607F0ADFEB0EE409AF0EE609AD54837
:101CF000006808F02BFD41EC1A0B53EC192B08F08F
:101D000063F841EC180B08F02DF8CE4908603AE072
:101D1000C748006805281BD1684607F091FEB0EE61
:101D2000409AF0EE609AC848006808F00FFD41EC58
:101D30001A0B53EC192B02E04EE039E024E008F0D6
:101D400043F841EC180B08F00DF8BF4908601AE0A1
:101D5000B7480068062816D1684607F071FEB0EE55
:101D6000409AF0EE609AB948006808F0EFFC41EC48
:101D70001A0B53EC192B08F027F841EC180B07F05D
:101D8000F1FFB24908603BE0AB48C07923280ED18F
:101D900007E004F10800A849085C0DF80400601C85
:101DA000C4B204F10800A449085C7D28F1D127E001
:101DB000A148C07923280ED107E004F108009E490C
:101DC000085C0DF80400601CC4B204F108009A49D4
:101DD000085C7D28F1D113E09748C07923280ED103
:101DE00007E004F108009449085C0DF80400601C49
:101DF000C4B204F108009049085C7D28F1D100BF0D
:101E000000BF00BF00BF00209149087002B0BDECC8
:101E1000068BBDE8F08110B588B004460121022090
:101E200001F010FE0121880401F055FE07220A216D
:101E3000884800F078FB07220B21864800F073FBEE
:101E40004FF44060069002208DF81C008DF81D00B4
:101E500000208DF81E0001208DF81F0006A97D4886
:101E600000F0D6FA02940020ADF80C00ADF80E0098
:101E7000ADF81000ADF814000C20ADF8120002A966
:101E8000754800F0F0FB0121734800F074FC40211C
:101E9000714800F058FD012240F225516E4800F0D3
:101EA00020FD27208DF8040002208DF80500032076
:101EB0008DF8060001208DF8070001A800F0B7F9A1
:101EC00008B010BD10B52DED068B6448007855287C
:101ED0007ED162484078512804D0522860D05328DF
:101EE00077D1E7E05D4989785C4AD27841EA0221FE
:101EF00008B208F0B9F941EC1A0B9FED590B53ECFD
:101F0000102B08F01DF841EC190B9FED570B53EC0B
:101F1000102B08F0FDF941EC180B07F023FF544992
:101F200008604E4909794D4A527941EA022108B2C6
:101F300008F09AF941EC1A0B9FED490B53EC102B6A
:101F400007F0FEFF41EC190B9FED470B53EC102BF4
:101F500008F0DEF941EC180B07F004FF4449486033
:101F60003E4989793D4AD27941EA022108B208F016
:101F70007BF941EC1A0B9FED3A0B53EC102B07F059
:101F8000DFFF41EC190B9FED380B53EC102B08F0E1
:101F9000BFF941EC180B07F0E5FE35498860E8E031
:101FA0002E4989782D4AD27841EA022108B208F0F8
:101FB0005BF941EC1A0B9FED2A0B53EC102B07F049
:101FC000BFFF41EC190B9FED2B0B53EC102B01E0E5
:101FD000D0E0CDE008F09CF941EC180B07F0C2FE10
:101FE000264908601D4909791C4A527941EA0221B3
:101FF00008B208F039F941EC1A0B9FED190B53ECBC
:10200000102B07F09DFF41EC190B9FED1A0B53ECC1
:10201000102B08F07DF941EC180B07F0A3FE1749CF
:1020200048600E4989790D4AD27941EA022127E0B8
:102030003C020020C8030020180500209403002063
:10204000AC030020B0030020C4030020D80300200C
:102050002C0200200004024000480040E804002058
:10206000000000000000E0400000000000003040E0
:10207000F40400200000000000409F400005002004
:1020800008B208F0F1F841EC1A0B1FED0B0B53EC02
:10209000102B07F055FF41EC190B1FED0A0B53EC09
:1020A000102B08F035F941EC180B07F05BFE4649A0
:1020B00088605EE045498978444AD27841EA022145
:1020C00008B208F0D1F841EC1A0B1FED1B0B53ECD2
:1020D000102B07F035FF41EC190B9FED3D0B53EC36
:1020E000102B08F015F941EC180B07F03BFE3A49AC
:1020F000086036490979354A527941EA022108B225
:1021000008F0B2F841EC1A0B1FED2B0B53EC102B1F
:1021100007F016FF41EC190B9FED2D0B53EC102B24
:1021200008F0F6F841EC180B07F01CFE2A4948604D
:1021300026498979254AD27941EA022108B208F074
:1021400093F841EC1A0B1FED3A0B53EC102B07F0F0
:10215000F7FE41EC190B9FED1E0B53EC102B08F012
:10216000D7F841EC180B07F0FDFD1B49886000E033
:1021700000BF00BFBDEC068B10BD10B540F225516D
:10218000164800F0E9FBE0B1144800F023FB0F49CA
:10219000134A127888541248007820B9084600780B
:1021A000552800D010BD0E480078401C0C4908701E
:1021B000084600780B2804D1FFF784FE0020084968
:1021C000087000BFEEE7000000050020E8040020D2
:1021D00000000000008066400C0500200048004020
:1021E0002C0200200948804709480047FEE7FEE727
:1021F000FEE7FEE7FEE7FEE7FEE7FEE7FEE7FEE7B7
:1022000004480549054A064B704700003905000897
:102210008901000800330120003901200035012028
:102220000035012032490143324A1160704770B5D0
:10223000002100230F22C4781CB32E4C246804F420
:10224000E064C4F5E064C4F30721C1F10404E3B21F
:102250000A4144789C40E1B28478144021430C0741
:10226000210E254C05786155047804F01F050124E2
:10227000AC4005786D11AD0005F1E025C5F80041D1
:1022800009E0047804F01F050124AC401B4D0678DA
:10229000761145F8264070BD194A0A400243154B95
:1022A0001B1F1A60704739B1124A121D126802438F
:1022B000104B1B1D1A6006E00E4A121D1268824365
:1022C0000C4B1B1D1A607047042808D14FF0E02109
:1022D000096941F004014FF0E022116107E04FF07D
:1022E000E021096921F004014FF0E02211617047FB
:1022F0000000FA050CED00E000E400E080E100E001
:1023000080FFFF1F10B504469848844208D1012180
:10231000084601F002FC0021012001F0FEFB76E0FE
:102320009348844208D10121022001F0F6FB0021EC
:10233000022001F0F2FB6AE08E48844208D10121BC
:10234000042001F0EAFB0021042001F0E6FB5EE03E
:102350008948844208D10121082001F0DEFB0021D8
:10236000082001F0DAFB52E08448844208D10121C0
:10237000102001F0D2FB0021102001F0CEFB46E03E
:102380007F48844208D10121202001F0C6FB0021B2
:10239000202001F0C2FB3AE07A48844208D10121B2
:1023A000402001F0BAFB0021402001F0B6FB2EE0F6
:1023B0007548844208D10121802001F0AEFB002144
:1023C000802001F0AAFB22E07048844208D101215C
:1023D000801501F0A2FB0021A01501F09EFB16E084
:1023E0006B48844208D10121401501F096FB002181
:1023F000601501F092FB0AE06648844207D1012192
:10240000001501F08AFB0021201501F086FB10BDAC
:10241000F0B50A4600210023002400BF3DE001255D
:1024200005FA01F3156805EA03049C4234D10568F6
:102430004F000326BE40B543056015794E00B540F8
:102440000668354305601579012D02D01579022DF6
:1024500016D185684F000326BE40B5438560557987
:102460004E00B540866835438560456801268E403C
:10247000B5434560456896798E40B6B235434560B0
:10248000C5684F000326BE40B543C560D5794E00F0
:10249000B540C6683543C560491C1029BFD3F0BD9F
:1024A0004FF6FF7101600021017141718171C171AD
:1024B000704708B54FF480320092009A0A430092A8
:1024C000009AC261C161009AC261C2690092C26988
:1024D000009208BD0246002013690B400BB1012099
:1024E00000E0002070470146086980B2704702464C
:1024F000002053690B400BB1012000E00020704721
:102500000146486980B27047018370474183704734
:102510000AB1018300E0418370474161704742691D
:102520004A4042617047F0B5002300244D07ED0E8C
:1025300002FA05F3CE1000F1200555F826504E079B
:10254000F70E0F26BE40B543CF1000F1200646F827
:102550002750CE1000F1200555F8265045EA030417
:10256000CE1000F1200545F82640F0BD00000240E5
:102570000004024000080240000C0240001002402B
:102580000014024000180240001C024000200240DB
:10259000002402400028024010B50446FA48844254
:1025A00008D10121102001F0FCFA0021102001F0D7
:1025B000F8FA57E0F548844209D10121480401F0B6
:1025C000DFFA00214FF4003001F0DAFA4AE0F04877
:1025D000844209D10121880401F0D2FA00214FF48C
:1025E000802001F0CDFA3DE0EA48844209D1012182
:1025F000C80401F0C5FA00214FF4002001F0C0FA30
:1026000030E0E548844209D10121080501F0B8FA1B
:1026100000214FF4801001F0B3FA23E0DF48844238
:1026200008D10121202001F0BCFA0021202001F076
:10263000B8FA17E0DA48844209D10121880701F08D
:102640009FFA00214FF0804001F09AFA0AE0D54845
:10265000844207D10121400501F092FA0021600572
:1026600001F08EFA10BD2DE9FF4705460E46002405
:10267000A14600BFA046B08900B100BF2C8A24F457
:102680004054F08804432C82AC8941F20C608443AE
:10269000B08831890843718908430443AC81AC8A0E
:1026A00024F44074B0890443AC82684601F0F9F820
:1026B000B548854202D0B948854202D1DDF80C9078
:1026C00001E0DDF80890A88900F4004040B109EB72
:1026D000C90000EB091031684900B0FBF1F707E0D1
:1026E00009EBC90000EB091031688900B0FBF1F774
:1026F0006420B7FBF0F004012009642101FB10788D
:10270000A88900F4004040B1322000EBC800B0FBC3
:10271000F1F000F00700044308E0322000EB08105D
:102720006421B0FBF1F000F00F0004432C81BDE800
:10273000FF874FF41651016000218180C180018123
:102740000C21418100218181704710B50246002093
:10275000108A20F470600B884C8823438C882343B4
:10276000CC8823431843108210BD00210180418092
:102770008180C180704721B1828942F400528281F8
:1027800004E082894DF6FF731A4082817047028B04
:1027900002F47F420283028B0A430283704721B115
:1027A000828942F40042828103E08289C2F30E02F0
:1027B0008281704721B1828A42F40062828204E001
:1027C000828A4FF2FF731A4082827047C1F3080277
:1027D0008280704701468888C0F308007047028AEB
:1027E0004FF6F0731A400282028A0A43028270474F
:1027F00021B1828942F00202828104E082894FF68F
:10280000FD731A408281704782894FF2FF731A402C
:10281000828182890A4382817047028A4FF6DF7380
:102820001A400282028A0A430282704721B1028A58
:1028300042F48042028204E0028A4BF6FF731A409F
:1028400002827047818941F001018181704721B185
:10285000828A42F00802828204E0828A4FF6F7738D
:102860001A4082827047028BD2B20283028B42EA04
:1028700001220283704721B1828A42F020028282C3
:1028800004E0828A4FF6DF731A408282704721B1DA
:10289000828A42F01002828204E0828A4FF6EF734D
:1028A0001A4082827047828A4FF6FB731A408282F6
:1028B000828A0A438282704721B1828A42F00202F0
:1028C000828204E0828A4FF6FD731A40828270474A
:1028D0001AB1838A0B43838202E0838A8B4383820B
:1028E0007047F0B50346002400260025002040F67E
:1028F0006A17B94200D100BF1846C1F3421401F073
:102900001F06012707FA06F5012C01D10C3004E05F
:10291000022C01D1103000E014301AB107682F43A7
:10292000076002E00768AF430760F0BD0246002081
:10293000B1F5007F00D100BF13880B400BB101201F
:1029400000E00020704701F40072B2F5007F00D172
:1029500000BFCA430280704770B5024600240023BE
:102960000025002040F66A16B14200D100BFC1F335
:10297000421501F01F03012606FA03F3012D13D1BE
:102980009689334017E000000010014000440040E9
:1029900000480040004C004000500040001401403E
:1029A00000780040007C0040022D02D1168A33409E
:1029B00001E0968A33400C12012606FA04F41688C8
:1029C000344013B10CB1012000E0002070BD10B5FF
:1029D0000022002340F66A14A14200D100BF0A126F
:1029E00001249440A3B2DC43048010BD10B504461A
:1029F000FE48844208D10121084601F0D2F80021A6
:102A0000012001F0CEF89DE0B4F1804F08D1012102
:102A1000084601F0B5F80021012001F0B1F891E07D
:102A2000F348844208D10121022001F0A9F80021D5
:102A3000022001F0A5F885E0EE48844208D101218A
:102A4000042001F09DF80021042001F099F879E0BC
:102A5000E948844208D10121082001F091F80021C1
:102A6000082001F08DF86DE0E448844208D101218E
:102A7000102001F085F80021102001F081F861E0BC
:102A8000DF48844208D10121202001F079F800219B
:102A9000202001F075F855E0DA48844208D1012180
:102AA000022001F07EF80021022001F07AF849E0CE
:102AB000D548844209D10121080401F072F80021AF
:102AC0004FF4803001F06DF83CE0D048844209D1E9
:102AD0000121480401F065F800214FF4003001F0B5
:102AE00060F82FE0CA48844209D10121880401F02E
:102AF00058F800214FF4802001F053F822E0C54837
:102B0000844208D10121402001F03AF80021402000
:102B100001F036F816E0C048844208D10121802037
:102B200001F02EF80021802001F02AF80AE0BB48CD
:102B3000844207D10121801501F022F80021A0155F
:102B400001F01EF810BD00220288A84B98420ED05A
:102B5000AC4B98420BD0B0F1804F08D0A44B9842B8
:102B600005D0A44B984202D0A34B984204D14FF613
:102B70008F731A404B881A43A04B984207D0A04B42
:102B8000984204D04FF6FF431A400B891A43028043
:102B90004B68C3620B880385944B984202D0994BD3
:102BA000984201D18B7A03860123838270474FF0CC
:102BB000FF314160002101800181418081727047B5
:102BC0000185828270470A46002101884FF68F7383
:102BD000194011430180704741627047C1627047DC
:102BE0000146486A70470146088D704721B1028846
:102BF00042F00202028004E002884FF6FD731A40A0
:102C00000280704721B1028842F00402028004E091
:102C100002884FF6FB731A400280704721B1028888
:102C200042F08002028004E002884FF67F731A406F
:102C30000280704702884FF6F7731A4002800288BC
:102C40000A430280704702884FF6FF431A40028011
:102C500002880A430280704721B1028842F00102D3
:102C6000028004E002884FF6FE731A40028070472B
:102C700070B5002400220023058C4FF6FE76354007
:102C80000584028C8388048B4FF68F752C40B51E0B
:102C90002C400D882C43751E2A408D892A434D886F
:102CA0002A43524DA84202D0564DA84213D14FF6A6
:102CB000F7752A40CD892A434FF6FB752A408D8847
:102CC0002A434FF6FF652B404FF6FF552B400D8AE8
:102CD0002B434D8A2B43838004838D684563028494
:102CE00070BD70B5002400220023058C4FF6EF76EE
:102CF00035400584028C8388048B48F6FF752C4090
:102D00004FF6FF452C400D884FF6FF7606EA052565
:102D10002C434FF6DF752A408D8906EA05152A43B4
:102D20004D8806EA05152A43304DA84202D0354D9C
:102D3000A8421DD14FF67F752A40CD894FF6FF7608
:102D400006EA05152A434FF6BF752A408D8806EA24
:102D500005152A434FF6FF352B404FF2FF752B40E8
:102D60000D8A06EA85052B434D8A06EA85052B4325
:102D7000838004838D688563028470BD70B50024F0
:102D800000220023058C4FF6FF6635400584028C37
:102D90008388848B4FF68F752C404FF6FC752C4042
:102DA0000D882C434FF6FF552A408D894FF6FF764C
:102DB00006EA05252A434D8806EA05252A430B4DD8
:102DC000A84202D00F4DA84238D14FF2FF752A40D9
:102DD000CD894FF6FF7606EA05252A434FF6FF35E3
:102DE0002A408D8806EA05252A4319E000000140A3
:102DF0000004004000080040000C004000100040AB
:102E00000014004000040140004001400044014023
:102E10000048014000180040001C00400020004015
:102E20004EF6FF752B404DF6FF752B400D8A06EAD6
:102E300005152B434D8A06EA05152B4383808483B1
:102E40008D68C563028470BD70B500220023002424
:102E5000058C4EF6FF7635400584038C8488828B82
:102E600048F6FF752A404FF6FF452A400D884FF679
:102E7000FF7606EA05252A434DF6FF752B408D891E
:102E800006EA05352B434D8806EA05352B43FE4DF2
:102E9000A84202D0FD4DA84208D14BF6FF752C4048
:102EA0000D8A4FF6FF7606EA85152C4384808283CF
:102EB0008D680564038470BD00210180418081809C
:102EC00081608181C18101824182704770B5034672
:102ED000002000241846183001258D40ACB21D8C0E
:102EE000A5431D8409B108290AD100EB61000568DA
:102EF0004FF68F76354005600568154305600FE095
:102F00000D1FC5F34E052844056848F6FF76354089
:102F1000056005684FF6FF7606EA02263543056030
:102F200070BD4163704781637047C163704701643E
:102F300070470A460021018B4FF68F7319401143E9
:102F4000018370470A460021018B48F6FF73194040
:102F50004FF6FF7303EA02231943018370470A46C1
:102F60000021818B4FF68F73194011438183704785
:102F70000A460021818B48F6FF7319404FF6FF7314
:102F800003EA02231943818370470A460021018B1B
:102F90004FF6F77319401143018370470A46002129
:102FA000018B4FF2FF7319404FF6FF7303EA0223C0
:102FB0001943018370470A460021818B4FF6F7734E
:102FC00019401143818370470A460021818B4FF2DB
:102FD000FF7319404FF6FF7303EA022319438183FD
:102FE00070470A460021018B4FF6FB7319401143CD
:102FF000018370470A460021018B4FF6FF331940C9
:103000004FF6FF7303EA02231943018370470A4610
:103010000021818B4FF6FB73194011438183704768
:103020000A460021818B4FF6FF3319404FF6FF739C
:1030300003EA02231943818370470A460021018B6A
:103040004FF67F7319401143018370470A460021F0
:10305000018BC1F30E014FF6FF7303EA02231943FC
:10306000018370470A460021818B4FF67F73194018
:103070001143818370470A460021818BC1F30E0101
:103080004FF6FF7303EA02231943818370470A4610
:103090000021018C4FF6FD731940114301847047E4
:1030A0000A460021018C4FF6F77319401143018441
:1030B00070470A460021018C4FF6DF7319404FF626
:1030C000FF7303EA02131943018470470A46002183
:1030D000018C4FF67F7319404FF6FF7303EA02131A
:1030E0001943018470470A460021018C4FF6FF53B3
:1030F00019404FF6FF7303EA022319430184704716
:103100000A460021018C4FF2FF7319404FF6FF73FE
:1031100003EA02231943018470470A460021018C07
:103120004DF6FF7319404FF6FF7303EA023319435C
:103130000184704730B5002301248C40A3B2048C75
:103140009C430484048C02FA01F5ADB22C43048440
:1031500030BD30B5002304248C40A3B2048C9C43C2
:103160000484048C02FA01F5ADB22C43048430BD12
:10317000828B4FF2FF331A408283828B4FF6FF73AC
:1031800003EA01231A4382837047F0B50C461546C3
:10319000002100220026078C4EF6FF7C07EA0C0770
:1031A0000784818B028C4FF6FF7707EA043640F6DE
:1031B000FF4739404FF6FF7707EA052739434FF6B7
:1031C000FF7707EA0337394345F6FF773A4046F47D
:1031D00080573A4381830284F0BD828B4FF6F373AC
:1031E0001A408283828B0A4382837047F0B50C4673
:1031F0001546002100220026078C4FF6FF6C07EAD7
:103200000C070784818B028C4FF6FF7707EA0426B0
:103210004FF60C7739404FF6FF7707EA03172F4335
:1032200039434FF2FF573A4046F480773A4381835F
:103230000284F0BD028B4FF2FF331A400283028BEF
:103240004FF6FF7303EA01231A4302837047F0B578
:103250000C461546002100220026078C4FF6EF7C15
:1032600007EA0C070784018B028C4FF6FF7707EA09
:10327000041640F6FF4739404FF6FF7707EA033759
:1032800039434FF6FF7703E000000140000401409E
:1032900007EA052739434FF65F773A4046F01007B3
:1032A0003A4301830284F0BD028B4FF6F3731A4058
:1032B0000283028B0A4302837047F0B50C46154621
:1032C00000210022068C4FF6FE773E400684018BDB
:1032D000028C4FF60C7631407E1C06EA03162E4314
:1032E00031434FF6F576324044F001063243018314
:1032F0000284F0BD70B505460C46208850B923897C
:10330000A28861882846FFF7D8FFE1882846FFF7A2
:10331000CBFF25E0208804280AD12389A288618870
:103320002846FFF794FFE1882846FFF783FF17E060
:10333000208808280AD12389A28861882846FFF7B7
:1033400055FFE1882846FFF748FF09E02389A28856
:1033500061882846FFF719FFE1882846FFF708FF34
:1033600070BD002101804180012181800021C18048
:10337000018170472DE9F04105460C4600260127E2
:10338000608808B9022600E00026A088012801D143
:10339000022700E001272088A0B92389A28861883C
:1033A0002846FFF78AFFE1882846FFF77DFF23893B
:1033B0003A4631462846FFF74AFFE1882846FFF79C
:1033C00039FF13E02389A28861882846FFF73FFF71
:1033D000E1882846FFF72EFF23893A4631462846E2
:1033E000FFF76BFFE1882846FFF75EFFBDE8F0813D
:1033F0000146486B70470146886B70470146C86BB1
:1034000070470146086C70470A884B881A438B88BE
:103410001A43CB881A430B891A434B891A438B8969
:103420001A43A0F844207047002101804180818028
:10343000C180018141818181704731B1B0F8442060
:1034400042F40042A0F8442005E0B0F84420C2F362
:103450000E02A0F84420704721B1828842F0040295
:10346000828004E082884FF6FB731A4082807047A6
:1034700021B1828842F00102828004E082884FF606
:10348000FE731A40828070471AB183890B4383818F
:1034900002E083898B4383817047818270470246B3
:1034A0000020138A0B400BB1012000E00020704780
:1034B000CA430282704730B5024600200023002430
:1034C000158A05EA0103958905EA010413B10CB1D7
:1034D000012000E0002030BDCA430282704741EA6B
:1034E0000203A0F8483070471AB183890B438381E7
:1034F00002E083898B438381704721B1828842F047
:103500000802828004E082884FF6F7731A408280B6
:10351000704701894FF6F8721140018170470A46E1
:10352000002101894FF68F731940114301817047C3
:1035300030B504460D4629462046FFF7F0FF2089A6
:1035400040F00700208130BD2DE9F04104460D46D2
:1035500016461F46602D06D13B46012231462046C5
:10356000FFF775FE05E03B46012231462046FFF796
:10357000A4FE29462046FFF7D2FF208940F007002D
:103580002081BDE8F08130B50C4600210189C9B227
:103590004FF6FF7505EA03251543254329430181AD
:1035A00030BD2DE9F04105460E46174698460024E9
:1035B00043463A4631462846FFF7E5FF2C894FF649
:1035C000F870044044F007044FF68F70044044F054
:1035D00070042C81BDE8F081F0B504460D46164616
:1035E0001F463B46324629462046FFF7CCFF20893E
:1035F00040F480402081F0BD82884FF68F731A40DE
:10360000828082880A438280704702894FF6F8736D
:103610001A40028102890A430281704702894FF6EB
:103620007F731A40028102890A4302817047F0B514
:103630000C4615461E460021002200230189028BFC
:10364000038C4FF6F877394021434FF6FC473A4058
:1036500040F201173A434FF6DD773B404FF6FF77D4
:1036600007EA06172F433B43018102830384F0BD21
:1036700021B1828842F08002828004E082884FF685
:103680007F731A4082807047A0F850107047000086
:10369000F948006840F00100F74908600020F64949
:1036A00008310860F4480068F4490840F2490860AD
:1036B000F348091D0860F348EF4984310860F04879
:1036C0001038091D0860EC48006820F48020EA49A1
:1036D00008600020E8490C310860E7498C31086037
:1036E00070470021E44A921C11701146087070471F
:1036F00010B501460022002300204A11012A02D100
:10370000DD4C236808E0022A03D1DB4C70342368C7
:1037100002E0D94C7434236801F01F020124944064
:103720001C400CB1012000E0002010BD38B5002085
:1037300000900024002500BF3120FFF7D9FF054687
:103740000098401C00900098B0F5A04F01D0002DCB
:10375000F2D03120FFF7CCFF08B1012400E00024B3
:10376000204638BD01460020C34A106820F0F8000A
:1037700040EAC10010607047C349086070470021EB
:10378000BD4A703211701170012802D004280AD18C
:1037900004E00121B84A7032117005E00521B64AF3
:1037A0007032117000E000BF00BF7047B749086079
:1037B000704770B5049C41EA82150126C6EB53069A
:1037C00045EA0645054345EA0465AB4E361D3560BE
:1037D00070BDAD4908667047820142EA0172A64B8E
:1037E00084331A607047A8498866704710B5830112
:1037F00043EA016343EA02739F4C8834236010BD9F
:10380000A14908677047A049C86470470246002074
:10381000994B0833186820F0EC6042EA0103184322
:10382000954B08331860704702460020924B0833CE
:10383000186820F0784042EA010318438E4B0833A1
:1038400018607047014600208B4A0832106820F04B
:10385000030008431060704787480830006800F094
:103860000C00704701460020834A0832106820F09F
:10387000F000084310607047014600207E4A08327D
:10388000106820F4E05008431060704701460020A3
:10389000794A0832106820F4604040EAC1001060A4
:1038A0007047F0B5002100220024022500260223E3
:1038B000714F08373F6807F00C0121B1042905D08A
:1038C000082937D105E0724F076036E0714F076075
:1038D00033E0694F3F1D3F68C7F38056664F3F1D79
:1038E0003F6807F03F036EB16A4FB7FBF3F7DFF8AD
:1038F00088C10CF1040CDCF800C0CCF3881C07FB79
:103900000CF40CE0624FB7FBF3F7DFF86CC10CF17D
:10391000040CDCF800C0CCF3881C07FB0CF4564FF9
:103920003F1D3F68C7F301477F1C7D00B4FBF5F7DF
:10393000076002E0564F076000BF00BF4E4F0837D8
:103940003F6807F0F0010909534F7A5C0768D740D8
:103950004760494F08373F6807F4E051890A4E4FE6
:103960007A5C4768D7408760434F08373F6807F461
:103970006041490B484F7A5C4768D740C760F0BD4B
:10398000002100F44072B2F5407F0AD13A4A083271
:10399000116821F4F811414A02401143364A0832B5
:1039A0001160354A70321268C0F30B031A43324B70
:1039B00070331A607047354944390860704733499D
:1039C000403908607047364908607047014600205A
:1039D000294A8C32106820F01F004A1E1043264AE4
:1039E0008C321060704701460020234A8C321068E8
:1039F00020F4F8504A1E40EA02201F4A8C32106020
:103A00007047014600201C4A8C32106820F4401098
:103A100008431060704701460020174A8C32106836
:103A200020F4400008431060704701460020124A0D
:103A30008C32106820F440300843106070471949F8
:103A40000860704739B10C4A3032126802430A4BA1
:103A500030331A6006E0084A303212688243064B5F
:103A600030331A607047F9B1034A343212680243A6
:103A7000014B34331A601CE000380240FFFFF6EAC5
:103A8000103000240030002000004742800E4742E2
:103A90000024F40000127A0052020020FFFCFF0F05
:103AA0005C014742E01147428F4A126882438E4BC5
:103AB0001A60704739B18C4A121D126802438A4B52
:103AC0001B1D1A6006E0884A121D12688243864B4D
:103AD0001B1D1A60704739B1834A0C3212680243C9
:103AE000814B0C331A6006E07F4A0C321268824325
:103AF0007D4B0C331A60704739B17B4A1032126823
:103B00000243794B10331A6006E0774A103212688C
:103B10008243754B10331A60704739B1724A243AA8
:103B200012680243704B243B1A6006E06E4A243A46
:103B3000126882436C4B243B1A60704739B16A4A61
:103B4000203A12680243684B203B1A6006E0664A3E
:103B5000203A12688243644B203B1A60704739B1A7
:103B6000614A1C3A126802435F4B1C3B1A6006E034
:103B70005D4A1C3A126882435B4B1C3B1A607047DB
:103B800039B1594A143A12680243574B143B1A6030
:103B900006E0554A143A12688243534B143B1A60AC
:103BA000704739B1504A103A126802434E4B103BED
:103BB0001A6006E04C4A103A126882434A4B103BA6
:103BC0001A60704739B1484A1C3212680243464BAA
:103BD0001C331A6006E0444A1C3212688243424B8E
:103BE0001C331A60704739B13F4A203212680243D1
:103BF0003D4B20331A6006E03B4A20321268824374
:103C0000394B20331A60704739B1374A2432126871
:103C10000243354B24331A6006E0334A24321268DB
:103C20008243314B24331A60704739B12E4A2C320B
:103C3000126802432C4B2C331A6006E02A4A2C32BD
:103C400012688243284B2C331A60704739B1264AD8
:103C5000303212680243244B30331A6006E0224AA5
:103C6000303212688243204B30331A60704701288B
:103C700008D11D493C31096841F008011A4A3C321B
:103C8000116007E018493C31096821F00801164A23
:103C90003C321160704739B1134A273A1278024317
:103CA000114B273B1A7006E00F4A273A12788243DD
:103CB0000D4B273B1A7070470B484030006840F0AE
:103CC0008070094940310860704701460020064A6B
:103CD000283A12680A400AB1012000E0002070472B
:103CE000014926390870704734380240016821F0D4
:103CF000010101600021016041608160C1600161DA
:103D000021214161DB49884204D13D21D94A103A41
:103D100091608CE0D7491831884205D14FF4746125
:103D2000D44A103A916082E0D2493031884205D1BC
:103D30004FF47411CF4A103A916078E0CD49483180
:103D4000884205D14FF07461CA4A103A91606EE022
:103D5000C8496031884204D1C749C64A103AD16087
:103D600065E0C4497831884204D1C449C14A103A57
:103D7000D1605CE0BF499031884204D1C049BD4A5E
:103D8000103AD16053E0BB49A831884205D14FF0C9
:103D90003D51B84A103AD16049E0BA49884204D14D
:103DA0003D21B84A083A116041E0B64918318842CD
:103DB00005D14FF47461B34A083A116037E0B14954
:103DC0003031884205D14FF47411AE4A083A11607F
:103DD0002DE0AC494831884205D14FF07461A94AC1
:103DE000083A116023E0A7496031884204D1A24912
:103DF000A44A121F11601AE0A2497831884204D106
:103E00009E49A04A121F116011E09E4990318842DC
:103E100004D19B499B4A121F116008E09949A831BF
:103E2000884204D14FF03D51964A121F11607047ED
:103E300010B500220268944B1A40CC680B682343EB
:103E40004C6923438C692343CC6923430C6A234385
:103E50004C6A23438C6A23434C6B23438C6B234370
:103E60001A430260426922F00702D1E90B3423436E
:103E70001A4342610B6943604B6883608B68C3607F
:103E800010BD0021016041608160C160016141613C
:103E90008161C161016241628162C162016341630A
:103EA0008163704721B1026842F00102026003E0C1
:103EB000026822F001020260704721B1026842F4F8
:103EC0000042026003E0026822F400420260704790
:103ED00021B1026842F02002026003E0026822F091
:103EE000200202607047416070470146486880B216
:103EF000704722B1036843F40023036003E00368C2
:103F000023F4002303600161704721B1026842F489
:103F10008022026003E0026822F48022026070477F
:103F20000AB1016100E0C1607047014600200A68E3
:103F300002F400220AB1012000E00020704701468F
:103F400000200A6802F001020AB1012000E000200E
:103F50007047014600204A6902F03800704730B5CA
:103F600003460A4600200024464DAB4202D2414996
:103F7000103901E04349103902F000550DB14C6889
:103F800000E00C68414D2C4004EA02050DB101200F
:103F900000E0002030BD02463A4B9A4202D235483A
:103FA000103801E03748103801F000531BB1374B8F
:103FB0000B40C36002E0354B0B408360704710B587
:103FC00001F080034BB122B1436943F080034361A8
:103FD00003E0436923F08003436180290BD02AB1B9
:103FE000036801F01E042343036004E0036801F04A
:103FF0001E04A343036010BD70B5024600200024D8
:104000000025204EB24202D21A4B103B01E01D4B5C
:10401000103B1F4E0E4036B11E2606EAD12416680C
:1040200006EA040502E0566906F0800501F0005634
:104030000EB15C6800E01C68144E344004EA0106CE
:1040400016B10DB1012000E0002070BD02460D4BFD
:104050009A4202D20748103801E00A48103801F0AD
:1040600000531BB1094B0B40C36002E0074B0B40F0
:1040700083607047106002403D000020400F002028
:1040800000003D20106402403F801CF07D0F7D0F3A
:104090003C0F3C0F10B501210802FFF782FD002103
:1040A0004FF48070FFF77DFD10BD30B50246002053
:1040B00000235068F84C20400D790C6844EA052430
:1040C000204350609068F54C2040D1E903542C43C4
:1040D0008D682C434D7944EA450420439060D06AB2
:1040E00020F470000C7D641EE4B2234340EA0350C8
:1040F000D06230BD00210160017141718160C160F9
:1041000001610121017570470021E54A1168E54A06
:104110001140D0E900231A4383681A43C3681A4345
:104120001143E14AC2F80413704700210160416065
:104130008160C160704721B1826842F001028260F3
:1041400003E0826822F00102826070470A46002183
:104150004168D64B19401143416070474162826209
:1041600070470A460021416821F01F011143416058
:10417000704738B1CA49096841F40001CA4AC2F817
:10418000041306E0C649096821F40001C64AC2F8D2
:104190000413704738B1C249096841F48001C24A2A
:1041A000C2F8041306E0BE49096821F48001BE4A42
:1041B000C2F804137047F0B504460D4600200021F4
:1041C000092D11DDE068A5F10A0606EB4607072672
:1041D00006FA07F18843A5F10A0606EB460603FA3C
:1041E00006F10843E0600CE0206905EB450707266F
:1041F00006FA07F1884305EB450603FA06F1084382
:104200002061072A0FDA606B561E06EB86071F2611
:1042100006FA07F18843561E06EB860605FA06F1F4
:104220000843606322E00D2A0FDA206BD61F06EBED
:1042300086071F2606FA07F18843D61F06EB860677
:1042400005FA06F10843206310E0E06AA2F10D06CA
:1042500006EB86071F2606FA07F18843A2F10D0632
:1042600006EB860605FA06F10843E062F0BD8168B8
:1042700041F0804181607047014600208A6802F069
:1042800080420AB1012000E00020704721B182681D
:1042900042F48062826003E0826822F4806282607D
:1042A000704721B1826842F00202826003E08268B6
:1042B00022F002028260704710B50A4600210023F6
:1042C000416821F46041531E41EA4331416010BD11
:1042D00021B1426842F40062426003E0426822F485
:1042E0000062426070470146C86C80B270476C48FB
:1042F000001D0068704721B1826842F480728260BC
:1043000003E0826822F480728260704721B1826883
:1043100042F40072826003E0826822F400728260DC
:10432000704738B15E49096841F400515E4AC2F8ED
:10433000041306E05A49096821F400515A4AC2F8A8
:1043400004137047F0B504461546002000220026ED
:10435000092911DDE068A1F10A0707EB470C0727DF
:1043600007FA0CF29043A1F10A0707EB470703FA9B
:1043700007F21043E0600CE0206901EB410C0727D5
:1043800007FA0CF2904301EB410703FA07F21043DE
:104390002061A06BC0F30156EF1C06F1010CA7EBE6
:1043A0000C0707EB870C1F2707FA0CF29043EF1C52
:1043B00006F1010CA7EB0C0707EB870701FA07F2E0
:1043C0001043A063F0BD10B50A4600210023816BA5
:1043D00021F44011531E41EA0351816310BD08B519
:1043E000002300930090009B0B440093009B1A60F5
:1043F00008BD0A460021816821F4702111438160C3
:1044000070470A460021816821F440111143816000
:104410007047816841F48001816070470146002047
:104420008A6802F480020AB1012000E0002070478F
:1044300021B1426842F48062426003E0426822F4A3
:1044400080624260704721B1426842F4805242600B
:1044500003E0426822F480524260704708B5024689
:1044600000200090009201F12800009B1844009069
:104470000098006880B208BD10B50B460021D9B283
:10448000012404FA01F11AB144680C43446002E0CB
:1044900044688C43446010BDFFFEFFFCFDF7FFC085
:1044A00004230140E030FCFF00200140FFFD3FFFFE
:1044B0000246002013680B400BB1012000E00020F1
:1044C0007047CA430260704770B50246002000235F
:1044D00000240B12556801268E4005EA0604156873
:1044E0001D4015B10CB1012000E0002070BD00227C
:1044F0000A12D3430360704700F1080141604FF096
:10450000FF31816000F10801C1600161002101609B
:10451000704700210161704742684A6093688B6070
:10452000936859609160086103685B1C0360704781
:1045300010B502460B685C1C0CB9106907E002F16B
:10454000080000E04068446824689C42FAD9446846
:104550004C604C68A160886041600A611468641C0A
:10456000146010BD01460A69D1E901309860D1E9B3
:10457000010358605068884201D18868506000206B
:1045800008611068401E10601068704770B50546DD
:104590000E462C4654B900BF502080F31188BFF35B
:1045A0004F8FBFF36F8F00BF00BFFEE703F05DF9D1
:1045B000D4E90F12206801FB0200A0600020A06374
:1045C00020686060E06B401E226C216800FB0211D5
:1045D000E160FF2084F8440084F845009EB920691A
:1045E00008B9012000E00020A8B904F1100001F092
:1045F00039FF80B14FF08050FA490860BFF34F8F08
:10460000BFF36F8F07E004F11000FFF775FF04F1AF
:104610002400FFF771FF03F04FF9012070BD2DE971
:10462000F04106460D4617469846069C0DB9246093
:1046300000E02760E663256401212046FFF7A6FF1E
:1046400084F84C80BDE8F0812DE9F84305460E461C
:1046500090460DB1012000E0002050B900BF50206D
:1046600080F31188BFF34F8FBFF36F8F00BF00BF80
:10467000FEE70EB9002701E005FB06F707F1500041
:1046800002F009FF04464CB1A14609F15009434626
:104690004A46314628460094FFF7C1FF2046BDE850
:1046A000F88370B5044603F0E0F894F9455010E043
:1046B000606A08B9012000E0002038B904F1240044
:1046C00001F0D0FE18B101F0D1FF00E003E0681E58
:1046D00045B2002DECDC00BFFF2084F8450003F05C
:1046E000EBF803F0C2F894F9445010E0206908B9DF
:1046F000012000E0002048B904F1100001F0B2FEF2
:1047000008B101F0B3FF681E45B200E001E0002DE2
:10471000ECDC00BFFF2084F8440003F0CDF870BD4E
:1047200070B5054603F0A1F8A86BE96B884201D18A
:10473000012400E0002403F0BFF8204670BD2DE9FD
:10474000F04104460F4615464FF00008A66B206C5A
:1047500048B9206800282CD1A06802F002F88046F1
:104760000020A06025E07DB93946226C606803F026
:10477000F0FE216C606808446060D4E90101884261
:1047800017D32068606014E03946226CE06803F0BB
:10479000E0FE216CE068411AE1602168E06888422F
:1047A00003D2216CA068411AE160022D01D106B14B
:1047B000761E701CA0634046BDE8F0812DE9FF43E2
:1047C00083B0064688461D464FF00009344654B96A
:1047D00000BF502080F31188BFF34F8FBFF36F8F5E
:1047E00000BF00BFFEE7B8F1000F01D1206C08B98F
:1047F000012000E0002050B900BF502080F3118854
:10480000BFF34F8FBFF36F8F00BF00BFFEE7022DD6
:1048100002D1E06B012801D1012000E0002050B955
:1048200000BF502080F31188BFF34F8FBFF36F8F0D
:1048300000BF00BFFEE701F02BFF08B9059808B9DB
:10484000012000E0002050B900BF502080F3118803
:10485000BFF34F8FBFF36F8F00BF00BFFEE700BFF6
:1048600003F003F8A06BE16B884201D3022D28D13D
:104870002A4641462046FFF762FF0746606A08B9AC
:10488000012000E0002068B904F1240001F0EAFDF5
:1048900088B14FF0805053490860BFF34F8FBFF38A
:1048A0006F8F08E03FB14FF080504E490860BFF372
:1048B0004F8FBFF36F8F02F0FFFF012007B0BDE8FD
:1048C000F083059818B902F0F7FF0020F6E7B9F178
:1048D000000F04D101A801F080FE4FF0010902F0A1
:1048E000EBFF01F0CAF802F0C0FF94F94400401C4D
:1048F00010B9002084F8440094F94500401C10B918
:10490000002084F8450002F0D7FF05A901A801F0B6
:104910006BFEF0B92046FFF703FFA0B104F11000D1
:10492000059901F035FD2046FFF7BBFE00F0F7FFCB
:10493000002895D14FF080502A490860BFF34F8F6F
:10494000BFF36F8F8CE72046FFF7ABFE00F0E7FF69
:1049500086E72046FFF7A5FE00F0E1FF0020ADE767
:1049600010B5044654B10020A06020600021E16031
:1049700000231A4619462046FFF720FF10BD2DE9F7
:10498000F041044601260027224600210120FFF7BE
:104990005BFE05462846FFF7E3FF2846BDE8F081A9
:1049A00070B505462C4654B900BF502080F31188DD
:1049B000BFF34F8FBFF36F8F00BF00BFFEE701F063
:1049C00064FEA16888420FD1E068401EE060E068A4
:1049D00028B900231A4619462046FFF7EFFE0126A4
:1049E00003E0000004ED00E00026304670BD014603
:1049F0004A6A22B10A6B1268C2F1050000E0002089
:104A0000704770B5054602F030FFA86B08B9012465
:104A100000E0002402F050FF204670BD2DE9F34174
:104A200082B005464FF000082C46002654B900BF5E
:104A3000502080F31188BFF34F8FBFF36F8F00BFFB
:104A400000BFFEE7206C08B9012000E0002050B94B
:104A500000BF502080F31188BFF34F8FBFF36F8FDB
:104A600000BF00BFFEE701F013FE08B9039808B9C4
:104A7000012000E0002050B900BF502080F31188D1
:104A8000BFF34F8FBFF36F8F00BF00BFFEE700BFC4
:104A900002F0EBFEA76BFFB1781EA063206810B98F
:104AA00001F03CFFA060206908B9012000E000206F
:104AB00060B904F1100001F0D5FC38B14FF080501E
:104AC000F8490860BFF34F8FBFF36F8F02F0F4FE19
:104AD000012004B0BDE8F081039898B90EB9012017
:104AE00000E0002050B900BF502080F31188BFF3D0
:104AF0004F8FBFF36F8F00BF00BFFEE702F0DCFEF9
:104B00000020E6E7B8F1000F04D1684601F065FD2A
:104B10004FF0010802F0D0FE00F0AFFF02F0A5FE5A
:104B200094F94400401C10B9002084F8440094F922
:104B30004500401C10B9002084F8450002F0BCFE7E
:104B400003A9684601F050FD40BB2046FFF759FF1E
:104B5000F0B1206838B902F088FEA06801F0A4FD29
:104B6000064602F0A9FE04F12400039901F010FCAE
:104B70002046FFF796FD00F0D2FE002888D14FF0C6
:104B80008050C8490860BFF34F8FBFF36F8F7FE736
:104B90002046FFF786FD00F0C2FE79E72046FFF7CA
:104BA00080FD00F0BCFE2046FFF72BFF0028EED072
:104BB0005EB102F05AFE2046FFF719FF074639465C
:104BC000A06801F02CFE02F077FE002081E72DE9BD
:104BD000F04106460F46344654B900BF502080F3DA
:104BE0001188BFF34F8FBFF36F8F00BF00BFFEE789
:104BF00001F04BFDA168884204D1E068401CE060F0
:104C0000012508E039462046FFF708FF054615B1A3
:104C1000E068401CE0602846BDE8F08170B50546BC
:104C20000E460DB1012000E0002050B900BF502019
:104C300080F31188BFF34F8FBFF36F8F00BF00BFAA
:104C4000FEE7AE4201D8012000E0002050B900BFCD
:104C5000502080F31188BFF34F8FBFF36F8F00BFD9
:104C600000BFFEE7022200212846FFF7EDFC0446C4
:104C700004B1A663204670BD2DE9F05F07468A4661
:104C800090461E463C4654B900BF502080F3118820
:104C9000BFF34F8FBFF36F8F00BF00BFFEE7BAF1C6
:104CA000000F01D1206C08B9012000E0002050B9AC
:104CB00000BF502080F31188BFF34F8FBFF36F8F79
:104CC00000BF00BFFEE7022E02D1E06B012801D138
:104CD000012000E0002050B900BF502080F311886F
:104CE000BFF34F8FBFF36F8F00BF00BFFEE702F02F
:104CF00017FE00BF5021EFF3118081F31188BFF33D
:104D00004F8FBFF36F8F00BF0546A06BE16B8842EA
:104D100001D3022E23D194F945B0324651462046A4
:104D2000FFF70DFD0BF1010088B9606A08B9012099
:104D300000E0002080B904F1240001F093FB58B199
:104D4000B8F1000F08D00120C8F8000004E00BF112
:104D5000010040B284F845004FF0010901E04FF036
:104D6000000900BF85F3118800BF4846BDE8F09FE9
:104D70002DE9F04706460F46344654B900BF50208F
:104D800080F31188BFF34F8FBFF36F8F00BF00BF59
:104D9000FEE7206C08B9012000E0002050B900BFF8
:104DA000502080F31188BFF34F8FBFF36F8F00BF88
:104DB00000BFFEE7206808B9A06808B9012000E03C
:104DC000002050B900BF502080F31188BFF34F8FEF
:104DD000BFF36F8F00BF00BFFEE702F0A1FD00BF71
:104DE0005021EFF3118081F31188BFF34F8FBFF390
:104DF0006F8F00BF0546D4F83890E06B48451ED948
:104E000094F945A009F10100A0630AF1010070B90D
:104E1000606A08B9012000E0002068B904F12400AC
:104E200001F020FB40B13FB10120386004E00AF1FD
:104E3000010040B284F845004FF0010801E04FF056
:104E4000000800BF85F3118800BF4046BDE8F08729
:104E500070B504460D46206C70B1216CE0680144C9
:104E6000E160D4E90210884201D32168E16028465C
:104E7000226CE16803F06DFB70BD2DE9F74183B052
:104E800005460E464FF000082C466CB900BF502076
:104E900080F31188BFF34F8FBFF36F8F00BF00BF48
:104EA000FEE7000004ED00E00EB9206C08B9012017
:104EB00000E0002050B900BF502080F31188BFF3FC
:104EC0004F8FBFF36F8F00BF00BFFEE701F0E0FB25
:104ED00008B9059808B9012000E0002050B900BFCA
:104EE000502080F31188BFF34F8FBFF36F8F00BF47
:104EF00000BFFEE700BF02F0B8FCA76BF7B1314678
:104F00002046FFF7A5FF781EA063206908B901209D
:104F100000E0002060B904F1100001F0A3FA38B1FC
:104F20004FF08050FA490860BFF34F8FBFF36F8F87
:104F300002F0C2FC012006B0BDE8F081059818B966
:104F400002F0BAFC0020F6E7B8F1000F04D101A886
:104F500001F043FB4FF0010802F0AEFC00F08DFDC4
:104F600002F083FC94F94400401C10B9002084F83E
:104F7000440094F94500401C10B9002084F8450015
:104F800002F09AFC05A901A801F02EFBF0B9204619
:104F9000FFF737FDA0B104F12400059901F0F8F9FD
:104FA0002046FFF77EFB00F0BAFC0028A3D14FF0AB
:104FB0008050D7490860BFF34F8FBFF36F8F9AE7D8
:104FC0002046FFF76EFB00F0AAFC94E72046FFF7AF
:104FD00068FB00F0A4FC2046FFF713FD00288AD0F0
:104FE0000020A8E72DE9F74382B005460E464FF0B2
:104FF00000082C4654B900BF502080F31188BFF33D
:105000004F8FBFF36F8F00BF00BFFEE70EB9206C5C
:1050100008B9012000E0002050B900BF502080F303
:105020001188BFF34F8FBFF36F8F00BF00BFFEE744
:1050300001F02EFB08B9049808B9012000E0002017
:1050400050B900BF502080F31188BFF34F8FBFF3DA
:105050006F8F00BF00BFFEE700BF02F006FCD4F870
:105060003890B9F1000F1ED0E76831462046FFF7AF
:10507000EFFEE760606A08B9012000E0002060B937
:1050800004F1240001F0EEF938B14FF08050A0494E
:105090000860BFF34F8FBFF36F8F02F00DFC01204C
:1050A00005B0BDE8F083049818B902F005FC0020B3
:1050B000F6E7B8F1000F04D1684601F08EFA4FF020
:1050C000010802F0F9FB00F0D8FC02F0CEFB94F9E5
:1050D0004400401C10B9002084F8440094F94500B5
:1050E000401C10B9002084F8450002F0E5FB04A93B
:1050F000684601F079FAF0B92046FFF782FCA0B1CA
:1051000004F12400049901F043F92046FFF7C9FA9D
:1051100000F005FC0028A0D14FF080507C490860C9
:10512000BFF34F8FBFF36F8F97E72046FFF7B9FAB2
:1051300000F0F5FB91E72046FFF7B3FA00F0EFFB34
:105140002046FFF75EFC002887D00020A8E72DE965
:10515000F05F064689461746344654B900BF5020D2
:1051600080F31188BFF34F8FBFF36F8F00BF00BF75
:10517000FEE7B9F1000F01D1206C08B9012000E071
:10518000002050B900BF502080F31188BFF34F8F2B
:10519000BFF36F8F00BF00BFFEE702F0C1FB00BF8F
:1051A0005021EFF3118081F31188BFF34F8FBFF3CC
:1051B0006F8F00BF0546D4F838A0BAF1000F22D097
:1051C00094F944B049462046FFF742FEAAF1010097
:1051D000A0630BF1010070B9206908B9012000E05B
:1051E000002068B904F1100001F03CF940B13FB172
:1051F0000120386004E00BF1010040B284F8440063
:105200004FF0010801E04FF0000800BF85F311885E
:1052100000BF4046BDE8F09F2DE9F04706468846AE
:10522000344654B900BF502080F31188BFF34F8F2C
:10523000BFF36F8F00BF00BFFEE7B8F1000F01D1D1
:10524000206C08B9012000E0002050B900BF5020B8
:1052500080F31188BFF34F8FBFF36F8F00BF00BF84
:10526000FEE7206C08B1012000E0002050B900BF2B
:10527000502080F31188BFF34F8FBFF36F8F00BFB3
:1052800000BFFEE702F04CFB00BF5021EFF311809E
:1052900081F31188BFF34F8FBFF36F8F00BF0546B7
:1052A000A06B48B1D4F80C9041462046FFF7D0FDE2
:1052B000C4F80C90012700E0002700BF85F3118897
:1052C00000BF3846BDE8F08770B5044654B900BF4A
:1052D000502080F31188BFF34F8FBFF36F8F00BF53
:1052E00000BFFEE702F0C1FAA56B02F0E5FA28461E
:1052F00070BD70B50446254665B900BF502080F3E7
:105300001188BFF34F8FBFF36F8F00BF00BFFEE761
:1053100004ED00E002F0A9FAD5E90E10461A02F0F9
:10532000CBFA304670BD10B501460A4652B900BFEF
:10533000502383F31188BFF34F8FBFF36F8F00BFEC
:1053400000BFFEE7906B10BD014600200EE0544AFE
:1053500002EBC00252688A4207D10022504B43F848
:10536000302003EBC0035A6002E0401C0828EED353
:1053700000BF704770B50446254655B900BF5020A0
:1053800080F31188BFF34F8FBFF36F8F00BF00BF53
:10539000FEE72846FFF7D8FF284602F010F970BD57
:1053A0000146886C704781647047014691F84C0053
:1053B000704710B501460A4652B900BF502383F327
:1053C0001188BFF34F8FBFF36F8F00BF00BFFEE7A1
:1053D000936B0BB9012000E0002010BD10B5014611
:1053E0000A4652B900BF502383F31188BFF34F8F91
:1053F000BFF36F8F00BF00BFFEE7936BD46BA34278
:1054000001D1012000E0002010BD024600200BE089
:10541000234B53F8303033B9214B43F8301003EBB2
:10542000C0035A6002E0401C0828F1D300BF704757
:105430000246002000210AE0194B03EBC1035B6820
:10544000934203D1164B53F8310002E0491C08295E
:10545000F2D300BF70472DE9F04105460E461746CE
:105460002C4602F002FA94F94400401C10B90020C6
:1054700084F8440094F94500401C10B9002084F8D9
:10548000450002F019FAA06B28B93A46314604F1FA
:10549000240000F0C9FF2046FFF703F9BDE8F081C2
:1054A0002C05002010B5002407E004EB8401FB4A22
:1054B00002EB8100FFF720F8641C052CF5D3F848B7
:1054C000FFF71AF8F748FFF717F8F748FFF714F84F
:1054D000F648FFF711F8F648FFF70EF8F048F549DF
:1054E0000860F048F449086010BD10B5044602F0A9
:1054F000BCF9F2480068401CF0490860F0480068B8
:1055000040B9EF4804600846006801280DD1FFF754
:10551000C9FF0AE0EB48006838B9E9480068C06A8A
:10552000E16A884201D8E6480460E7480068401C08
:10553000E549086008460068206494F82C100120B2
:105540008840E24909680843E0490860E16A01EBE4
:105550008101D24A02EB8100211DFEF7DDFF02F03E
:10556000ABF9D848006868B1D5480068C06AE16AFC
:10557000884207D24FF08050D5490860BFF34F8F63
:10558000BFF36F8F10BD2DE9F05F82460E46904647
:105590009B460A9F0C9C56B900BF502080F311888F
:1055A000BFF34F8FBFF36F8F00BF00BFFEE74FEA1F
:1055B0008801A522206B03F011F8A8F10100216BEE
:1055C00001EB800929F0070909F0070008B901205B
:1055D00000E0002050B900BF502080F31188BFF3D5
:1055E0004F8FBFF36F8F00BF00BFFEE7002507E0BE
:1055F000715D04F134004155705D00B902E06D1C2D
:105600000A2DF5D300BF00213D200155052F00D301
:105610000427E762A7640020E064201DFEF779FFFD
:1056200004F11800FEF775FF2461C7F10500A061C1
:1056300064620020206584F854005A46514648466A
:1056400002F034F820600B9808B10B980460BDE8B4
:10565000F09F2DE9FF4F85B0804689461746DDE96A
:1056600012ABB80001F017FF064656B1582001F002
:1056700012FF04460CB1266304E0304601F09FFFA0
:1056800000E000247CB10020CDE900ABCDE9024070
:105690003A4649464046089BFFF775FF2046FFF70C
:1056A00024FF012501E04FF0FF35284609B0BDE891
:1056B000F08F80490968096809B9012100E00021DB
:1056C00021B14FF0FF31834A116006E07949096842
:1056D000C968C8687F4A41681160704710B50446C0
:1056E000206B01F06CFF204601F069FF10BD70B522
:1056F000054602F0BAF815B97148006800E028467E
:105700000446201DFEF72EFF78B9E06A00EB80000A
:10571000624951F8200040B994F82C1001208840CB
:105720006A490968814369480160A06A18B104F1B7
:105730001800FEF717FF64480068401C62490860C3
:105740005F480068844209D1211D5848FEF7E4FEF5
:1057500061480068401C6049086009E057480068DB
:10576000401E564908602046FFF7B8FFFFF7A1FF2B
:1057700002F0A2F853480068E8B15148006884423A
:1057800019D15648006808B9012000E0002050B93E
:1057900000BF502080F31188BFF34F8FBFF36F8F8E
:1057A00000BF00BFFEE74FF0805049490860BFF3DB
:1057B0004F8FBFF36F8F70BD2DE9F0414FF00008A0
:1057C00046480068002868D145480068451C4448A0
:1057D000056015BB37480068006808B9012000E083
:1057E000002050B900BF502080F31188BFF34F8FC5
:1057F000BFF36F8F00BF00BFFEE72E4807682E483B
:1058000000682C4908602C48076036480068401C36
:1058100034490860FFF74DFF00BF2E4800688542FD
:1058200063D300BF23480068006808B9012000E086
:10583000002020B14FF0FF302649086054E01D4899
:105840000068C068C4686668B54202D22148066034
:105850004AE0201DFEF786FEA06A18B104F1180088
:10586000FEF780FE94F82C10012088401749096843
:10587000084316490860E16A01EB8101074A02EB1F
:105880008100211DFEF748FE0D49E06A0968C96ADA
:105890008842C7D34FF00108C4E733E06C0500200D
:1058A000D0050020E4050020F80500200C060020AB
:1058B00020060020680200206C02002074020020F4
:1058C0006402002080020020900200207C02002060
:1058D00004ED00E094020020700200209C020020F1
:1058E000780200208C02002000BFFE480068C06AD9
:1058F00000EB8000FC4951F82000012801D94FF04D
:10590000010804E0F9480068401CF8490860F848BC
:10591000006808B14FF001084046BDE8F08170B55D
:1059200000240026F348006850B900BF502080F3DF
:105930001188BFF34F8FBFF36F8F00BF00BFFEE72B
:1059400001F093FFEB480068401EEA4908600846F2
:10595000006800284FD1E848006800284BD024E0B8
:10596000E648C068C46804F11800FEF7FBFD201D7E
:10597000FEF7F8FD94F82C1001208840E0490968F2
:105980000843DF490860E16A01EB8101D64A02EB76
:105990008100211DFEF7C0FDD249E06A0968C96A8D
:1059A000884202D30120D2490860D448006808B96F
:1059B000012000E000200028D2D00CB1FFF779FED2
:1059C000CA48056865B100BFFFF7F6FE10B10120B7
:1059D000C74908606D1E002DF6D10020C34908603C
:1059E000C348006838B101263007C6490860BFF3D4
:1059F0004F8FBFF36F8F01F05FFF304670BD2DE911
:105A0000F04105460E46C0480768B6480068001DCC
:105A1000FEF7A8FD50B9B348006890F82C1001209B
:105A20008840B74909688143B5480160681C38B9A6
:105A300036B1AC480168091DB448FEF76DFD1AE0A7
:105A40007C19A84800684460BC4207D2A548016898
:105A5000091DAF480068FEF76BFD0CE0A148016826
:105A6000091DAC480068FEF763FDAB48006884423E
:105A700001D2A9480460BDE8F0819E480068401C3E
:105A80009C49086070472DE9F04704460F464FF0E7
:105A9000000954B900BF502080F31188BFF34F8F25
:105AA000BFF36F8F00BF00BFFEE70FB1012000E022
:105AB000002050B900BF502080F31188BFF34F8FF2
:105AC000BFF36F8F00BF00BFFEE78A48006808B9C8
:105AD000012000E0002050B900BF502080F3118861
